{
  "contractName": "Election",
  "abi": [
    {
      "inputs": [],
      "payable": false,
      "stateMutability": "nonpayable",
      "type": "constructor"
    },
    {
      "constant": true,
      "inputs": [
        {
          "internalType": "uint256",
          "name": "",
          "type": "uint256"
        }
      ],
      "name": "candidates",
      "outputs": [
        {
          "internalType": "uint256",
          "name": "id",
          "type": "uint256"
        },
        {
          "internalType": "uint256",
          "name": "voteCount",
          "type": "uint256"
        },
        {
          "internalType": "string",
          "name": "name",
          "type": "string"
        }
      ],
      "payable": false,
      "stateMutability": "view",
      "type": "function"
    },
    {
      "constant": true,
      "inputs": [],
      "name": "candidatesCount",
      "outputs": [
        {
          "internalType": "uint256",
          "name": "",
          "type": "uint256"
        }
      ],
      "payable": false,
      "stateMutability": "view",
      "type": "function"
    },
    {
      "constant": true,
      "inputs": [
        {
          "internalType": "address",
          "name": "",
          "type": "address"
        }
      ],
      "name": "voters",
      "outputs": [
        {
          "internalType": "bool",
          "name": "",
          "type": "bool"
        }
      ],
      "payable": false,
      "stateMutability": "view",
      "type": "function"
    },
    {
      "constant": false,
      "inputs": [
        {
          "internalType": "uint256",
          "name": "_candidateId",
          "type": "uint256"
        }
      ],
      "name": "addVote",
      "outputs": [],
      "payable": false,
      "stateMutability": "nonpayable",
      "type": "function"
    },
    {
      "constant": true,
      "inputs": [],
      "name": "hasVoted",
      "outputs": [
        {
          "internalType": "bool",
          "name": "",
          "type": "bool"
        }
      ],
      "payable": false,
      "stateMutability": "view",
      "type": "function"
    }
  ],
  "bytecode": "0x608060405234801561001057600080fd5b506100556040518060400160405280600c81526020017f4b616d616c2048617373616e000000000000000000000000000000000000000081525061009e60201b60201c565b6100996040518060400160405280600a81526020017f52616a6e696b616e74680000000000000000000000000000000000000000000081525061009e60201b60201c565b6101be565b600160008154809291906001019190505550604051806060016040528060015481526020016000815260200182815250600080600154815260200190815260200160002060008201518160000155602082015181600101556040820151816002019080519060200190610112929190610119565b5090505050565b828054600181600116156101000203166002900490600052602060002090601f016020900481019282601f1061015a57805160ff1916838001178555610188565b82800160010185558215610188579182015b8281111561018757825182559160200191906001019061016c565b5b5090506101959190610199565b5090565b6101bb91905b808211156101b757600081600090555060010161019f565b5090565b90565b610453806101cd6000396000f3fe608060405234801561001057600080fd5b50600436106100575760003560e01c80630383badc1461005c5780632d35a8a21461008a5780633477ee2e146100a8578063648213381461015d578063a3ec138d1461017f575b600080fd5b6100886004803603602081101561007257600080fd5b81019080803590602001909291905050506101db565b005b6100926102e2565b6040518082815260200191505060405180910390f35b6100d4600480360360208110156100be57600080fd5b81019080803590602001909291905050506102e8565b6040518084815260200183815260200180602001828103825283818151815260200191508051906020019080838360005b83811015610120578082015181840152602081019050610105565b50505050905090810190601f16801561014d5780820380516001836020036101000a031916815260200191505b5094505050505060405180910390f35b6101656103aa565b604051808215151515815260200191505060405180910390f35b6101c16004803603602081101561019557600080fd5b81019080803573ffffffffffffffffffffffffffffffffffffffff1690602001909291905050506103fe565b604051808215151515815260200191505060405180910390f35b600260003373ffffffffffffffffffffffffffffffffffffffff1673ffffffffffffffffffffffffffffffffffffffff16815260200190815260200160002060009054906101000a900460ff161561023257600080fd5b60008111801561025957506001546000808381526020019081526020016000206000015411155b61026257600080fd5b6001600260003373ffffffffffffffffffffffffffffffffffffffff1673ffffffffffffffffffffffffffffffffffffffff16815260200190815260200160002060006101000a81548160ff0219169083151502179055506000808281526020019081526020016000206001016000815480929190600101919050555050565b60015481565b6000602052806000526040600020600091509050806000015490806001015490806002018054600181600116156101000203166002900480601f0160208091040260200160405190810160405280929190818152602001828054600181600116156101000203166002900480156103a05780601f10610375576101008083540402835291602001916103a0565b820191906000526020600020905b81548152906001019060200180831161038357829003601f168201915b5050505050905083565b6000600260003373ffffffffffffffffffffffffffffffffffffffff1673ffffffffffffffffffffffffffffffffffffffff16815260200190815260200160002060009054906101000a900460ff16905090565b60026020528060005260406000206000915054906101000a900460ff168156fea265627a7a723158203125ec1be8730b494be49164bec3a187042608a03f6231d90e63c256a240a31664736f6c63430005100032",
  "source": "pragma solidity 0.5.16;\n\ncontract Election {\n\n    struct Candidate {\n        uint id;\n        uint voteCount;\n        string name;\n    } \n\n    mapping (uint => Candidate) public candidates;\n    uint public candidatesCount;\n    mapping (address => bool) public voters;\n\n    constructor() public {\n        addCandidate(\"Kamal Hassan\");\n        addCandidate(\"Rajnikanth\");\n    }\n\n     function addCandidate( string memory _name) private {\n        candidatesCount++;\n        candidates[candidatesCount] = Candidate(candidatesCount,0,_name);\n    }\n\n    function addVote(uint _candidateId) public {\n        require(!voters[msg.sender]);\n\n        require(_candidateId > 0 && candidates[_candidateId].id <= candidatesCount);\n        voters[msg.sender] = true;\n        candidates[_candidateId].voteCount++;\n    }\n\n    function hasVoted () external view returns (bool){\n        return voters[msg.sender];\n    }\n}",
  "sourcePath": "/Users/akashjain/election/contracts/Election.sol",
  "compiler": {
    "name": "solc",
    "version": "0.5.16+commit.9c3226ce.Emscripten.clang"
  },
  "schemaVersion": "3.4.10",
  "updatedAt": "2022-10-31T11:09:24.636Z",
  "networkType": "ethereum",
  "devdoc": {
    "methods": {}
  },
  "userdoc": {
    "methods": {}
  }
}